{
  "contractName": "DappTokenSale",
  "abi": [
    {
      "constant": true,
      "inputs": [],
      "name": "tokenContract",
      "outputs": [
        {
          "name": "",
          "type": "address"
        }
      ],
      "payable": false,
      "stateMutability": "view",
      "type": "function"
    },
    {
      "constant": true,
      "inputs": [],
      "name": "tokenPrice",
      "outputs": [
        {
          "name": "",
          "type": "uint256"
        }
      ],
      "payable": false,
      "stateMutability": "view",
      "type": "function"
    },
    {
      "inputs": [
        {
          "name": "_tokenContract",
          "type": "address"
        },
        {
          "name": "_tokenPrice",
          "type": "uint256"
        }
      ],
      "payable": false,
      "stateMutability": "nonpayable",
      "type": "constructor"
    }
  ],
  "bytecode": "0x608060405234801561001057600080fd5b506040516040806102068339810180604052604081101561003057600080fd5b810190808051906020019092919080519060200190929190505050336000806101000a81548173ffffffffffffffffffffffffffffffffffffffff021916908373ffffffffffffffffffffffffffffffffffffffff16021790555081600160006101000a81548173ffffffffffffffffffffffffffffffffffffffff021916908373ffffffffffffffffffffffffffffffffffffffff160217905550806002819055505050610122806100e46000396000f3fe6080604052600436106049576000357c0100000000000000000000000000000000000000000000000000000000900463ffffffff16806355a373d614604e5780637ff9b5961460a2575b600080fd5b348015605957600080fd5b50606060ca565b604051808273ffffffffffffffffffffffffffffffffffffffff1673ffffffffffffffffffffffffffffffffffffffff16815260200191505060405180910390f35b34801560ad57600080fd5b5060b460f0565b6040518082815260200191505060405180910390f35b600160009054906101000a900473ffffffffffffffffffffffffffffffffffffffff1681565b6002548156fea165627a7a72305820f9fd5e6e89cbb7282b119ca40ee0b50f616171e4f92b8fb957b0f7d1be56d51d0029",
  "source": "pragma solidity ^0.5.0;\r\n\r\nimport \"./DappToken.sol\";\r\ncontract DappTokenSale {\r\n    address admin;\r\n    DappToken public tokenContract;\r\n    uint256 public tokenPrice;\r\n    constructor(DappToken _tokenContract, uint256 _tokenPrice) public{\r\n        //Assign an admin\r\n        admin = msg.sender;\r\n        //Token Contract\r\n        tokenContract = _tokenContract;\r\n        //Token Price\r\n\r\n        tokenPrice = _tokenPrice;\r\n\r\n    }\r\n}",
  "sourcePath": "D:/SHARANYA/Work/nVipani/token_sale/contracts/DappTokenSale.sol",
  "compiler": {
    "name": "solc",
    "version": "0.5.0+commit.1d4f565a.Emscripten.clang"
  },
  "schemaVersion": "3.0.1",
  "updatedAt": "2019-02-13T12:09:01.902Z",
  "devdoc": {
    "methods": {}
  },
  "userdoc": {
    "methods": {}
  }
}