{
  "contractName": "DappToken",
  "abi": [
    {
      "constant": true,
      "inputs": [],
      "name": "totalSupply",
      "outputs": [
        {
          "name": "",
          "type": "uint256"
        }
      ],
      "payable": false,
      "stateMutability": "view",
      "type": "function",
      "signature": "0x18160ddd"
    },
    {
      "inputs": [],
      "payable": false,
      "stateMutability": "nonpayable",
      "type": "constructor",
      "signature": "constructor"
    }
  ],
  "bytecode": "0x608060405234801561001057600080fd5b50620f4240600081905550609e806100296000396000f3fe608060405260043610603f576000357c0100000000000000000000000000000000000000000000000000000000900463ffffffff16806318160ddd146044575b600080fd5b348015604f57600080fd5b506056606c565b6040518082815260200191505060405180910390f35b6000548156fea165627a7a72305820abb168fa195004538025090035018ccf15f2879df779530466f7a5f617abbf7c0029",
  "source": "pragma solidity ^0.5.0;\r\ncontract DappToken\r\n {\r\n    uint256 public totalSupply;\r\n\r\n    constructor() public {\r\n        totalSupply = 1000000;\r\n\r\n    }\r\n}",
  "sourcePath": "D:/SHARANYA/Work/nVipani/token_sale/contracts/DappToken.sol",
  "compiler": {
    "name": "solc",
    "version": "0.5.0+commit.1d4f565a.Emscripten.clang"
  },
  "schemaVersion": "3.0.1",
  "updatedAt": "2019-02-11T09:20:45.447Z",
  "devdoc": {
    "methods": {}
  },
  "userdoc": {
    "methods": {}
  }
}